{
  "_format": "hh-sol-artifact-1",
  "contractName": "Crowdfunding",
  "sourceName": "contracts/CrowdFunding.sol",
  "abi": [
    {
      "inputs": [],
      "stateMutability": "nonpayable",
      "type": "constructor"
    },
    {
      "anonymous": false,
      "inputs": [
        {
          "indexed": false,
          "internalType": "uint256",
          "name": "campaignId",
          "type": "uint256"
        },
        {
          "indexed": false,
          "internalType": "string",
          "name": "title",
          "type": "string"
        },
        {
          "indexed": false,
          "internalType": "address",
          "name": "benefactor",
          "type": "address"
        },
        {
          "indexed": false,
          "internalType": "uint256",
          "name": "goal",
          "type": "uint256"
        }
      ],
      "name": "CampaignCreated",
      "type": "event"
    },
    {
      "anonymous": false,
      "inputs": [
        {
          "indexed": false,
          "internalType": "uint256",
          "name": "campaignId",
          "type": "uint256"
        },
        {
          "indexed": false,
          "internalType": "uint256",
          "name": "amountRaised",
          "type": "uint256"
        },
        {
          "indexed": false,
          "internalType": "bool",
          "name": "goalReached",
          "type": "bool"
        }
      ],
      "name": "CampaignEnded",
      "type": "event"
    },
    {
      "anonymous": false,
      "inputs": [
        {
          "indexed": false,
          "internalType": "uint256",
          "name": "campaignId",
          "type": "uint256"
        },
        {
          "indexed": false,
          "internalType": "address",
          "name": "donor",
          "type": "address"
        },
        {
          "indexed": false,
          "internalType": "uint256",
          "name": "amount",
          "type": "uint256"
        }
      ],
      "name": "DonationReceived",
      "type": "event"
    },
    {
      "inputs": [
        {
          "internalType": "uint256",
          "name": "",
          "type": "uint256"
        }
      ],
      "name": "campaigns",
      "outputs": [
        {
          "internalType": "string",
          "name": "title",
          "type": "string"
        },
        {
          "internalType": "string",
          "name": "description",
          "type": "string"
        },
        {
          "internalType": "address payable",
          "name": "benefactor",
          "type": "address"
        },
        {
          "internalType": "uint256",
          "name": "goal",
          "type": "uint256"
        },
        {
          "internalType": "uint256",
          "name": "deadline",
          "type": "uint256"
        },
        {
          "internalType": "uint256",
          "name": "amountRaised",
          "type": "uint256"
        },
        {
          "internalType": "bool",
          "name": "ended",
          "type": "bool"
        }
      ],
      "stateMutability": "view",
      "type": "function"
    },
    {
      "inputs": [
        {
          "internalType": "string",
          "name": "_title",
          "type": "string"
        },
        {
          "internalType": "string",
          "name": "_description",
          "type": "string"
        },
        {
          "internalType": "address payable",
          "name": "_benefactor",
          "type": "address"
        },
        {
          "internalType": "uint256",
          "name": "_goal",
          "type": "uint256"
        },
        {
          "internalType": "uint256",
          "name": "_duration",
          "type": "uint256"
        }
      ],
      "name": "createCampaign",
      "outputs": [],
      "stateMutability": "nonpayable",
      "type": "function"
    },
    {
      "inputs": [
        {
          "internalType": "uint256",
          "name": "_campaignId",
          "type": "uint256"
        }
      ],
      "name": "donate",
      "outputs": [],
      "stateMutability": "payable",
      "type": "function"
    },
    {
      "inputs": [
        {
          "internalType": "uint256",
          "name": "_campaignId",
          "type": "uint256"
        }
      ],
      "name": "endCampaign",
      "outputs": [],
      "stateMutability": "nonpayable",
      "type": "function"
    },
    {
      "inputs": [
        {
          "internalType": "uint256",
          "name": "_campaignId",
          "type": "uint256"
        }
      ],
      "name": "getCampaign",
      "outputs": [
        {
          "internalType": "string",
          "name": "title",
          "type": "string"
        },
        {
          "internalType": "string",
          "name": "description",
          "type": "string"
        },
        {
          "internalType": "address",
          "name": "benefactor",
          "type": "address"
        },
        {
          "internalType": "uint256",
          "name": "goal",
          "type": "uint256"
        },
        {
          "internalType": "uint256",
          "name": "deadline",
          "type": "uint256"
        },
        {
          "internalType": "uint256",
          "name": "amountRaised",
          "type": "uint256"
        },
        {
          "internalType": "bool",
          "name": "ended",
          "type": "bool"
        }
      ],
      "stateMutability": "view",
      "type": "function"
    },
    {
      "inputs": [],
      "name": "getCampaignCount",
      "outputs": [
        {
          "internalType": "uint256",
          "name": "",
          "type": "uint256"
        }
      ],
      "stateMutability": "view",
      "type": "function"
    },
    {
      "inputs": [],
      "name": "owner",
      "outputs": [
        {
          "internalType": "address",
          "name": "",
          "type": "address"
        }
      ],
      "stateMutability": "view",
      "type": "function"
    },
    {
      "inputs": [],
      "name": "withdrawLeftoverFunds",
      "outputs": [],
      "stateMutability": "nonpayable",
      "type": "function"
    },
    {
      "stateMutability": "payable",
      "type": "receive"
    }
  ],
  "bytecode": "0x608060405234801561001057600080fd5b5033600160006101000a81548173ffffffffffffffffffffffffffffffffffffffff021916908373ffffffffffffffffffffffffffffffffffffffff160217905550611b58806100616000396000f3fe60806040526004361061007f5760003560e01c80638da5cb5b1161004e5780638da5cb5b146101535780639304d1241461017e578063dd0408ae146101a7578063f14faf6f146101d057610086565b8063141961bc1461008b5780632bd71681146100ce5780635598f8cc146100e55780636caa92181461012857610086565b3661008657005b600080fd5b34801561009757600080fd5b506100b260048036038101906100ad9190610cf2565b6101ec565b6040516100c59796959493929190610e1a565b60405180910390f35b3480156100da57600080fd5b506100e361037b565b005b3480156100f157600080fd5b5061010c60048036038101906101079190610cf2565b610525565b60405161011f9796959493929190610eb8565b60405180910390f35b34801561013457600080fd5b5061013d6106d5565b60405161014a9190610f35565b60405180910390f35b34801561015f57600080fd5b506101686106e1565b6040516101759190610f50565b60405180910390f35b34801561018a57600080fd5b506101a560048036038101906101a091906110cc565b610707565b005b3480156101b357600080fd5b506101ce60048036038101906101c99190610cf2565b61091e565b005b6101ea60048036038101906101e59190610cf2565b610b35565b005b600081815481106101fc57600080fd5b906000526020600020906007020160009150905080600001805461021f906111ae565b80601f016020809104026020016040519081016040528092919081815260200182805461024b906111ae565b80156102985780601f1061026d57610100808354040283529160200191610298565b820191906000526020600020905b81548152906001019060200180831161027b57829003601f168201915b5050505050908060010180546102ad906111ae565b80601f01602080910402602001604051908101604052809291908181526020018280546102d9906111ae565b80156103265780601f106102fb57610100808354040283529160200191610326565b820191906000526020600020905b81548152906001019060200180831161030957829003601f168201915b5050505050908060020160009054906101000a900473ffffffffffffffffffffffffffffffffffffffff16908060030154908060040154908060050154908060060160009054906101000a900460ff16905087565b600160009054906101000a900473ffffffffffffffffffffffffffffffffffffffff1673ffffffffffffffffffffffffffffffffffffffff163373ffffffffffffffffffffffffffffffffffffffff161461040b576040517f08c379a000000000000000000000000000000000000000000000000000000000815260040161040290611251565b60405180910390fd5b600047905060008111610453576040517f08c379a000000000000000000000000000000000000000000000000000000000815260040161044a906112bd565b60405180910390fd5b6000600160009054906101000a900473ffffffffffffffffffffffffffffffffffffffff1673ffffffffffffffffffffffffffffffffffffffff168260405161049b9061130e565b60006040518083038185875af1925050503d80600081146104d8576040519150601f19603f3d011682016040523d82523d6000602084013e6104dd565b606091505b5050905080610521576040517f08c379a00000000000000000000000000000000000000000000000000000000081526004016105189061136f565b60405180910390fd5b5050565b606080600080600080600080600089815481106105455761054461138f565b5b9060005260206000209060070201905080600001816001018260020160009054906101000a900473ffffffffffffffffffffffffffffffffffffffff168360030154846004015485600501548660060160009054906101000a900460ff168680546105af906111ae565b80601f01602080910402602001604051908101604052809291908181526020018280546105db906111ae565b80156106285780601f106105fd57610100808354040283529160200191610628565b820191906000526020600020905b81548152906001019060200180831161060b57829003601f168201915b5050505050965085805461063b906111ae565b80601f0160208091040260200160405190810160405280929190818152602001828054610667906111ae565b80156106b45780601f10610689576101008083540402835291602001916106b4565b820191906000526020600020905b81548152906001019060200180831161069757829003601f168201915b50505050509550975097509750975097509750975050919395979092949650565b60008080549050905090565b600160009054906101000a900473ffffffffffffffffffffffffffffffffffffffff1681565b6000821161074a576040517f08c379a00000000000000000000000000000000000000000000000000000000081526004016107419061140a565b60405180910390fd5b6000811161078d576040517f08c379a00000000000000000000000000000000000000000000000000000000081526004016107849061149c565b60405180910390fd5b6000814261079b91906114eb565b905060006040518060e001604052808881526020018781526020018673ffffffffffffffffffffffffffffffffffffffff16815260200185815260200183815260200160008152602001600015158152509080600181540180825580915050600190039060005260206000209060070201600090919091909150600082015181600001908161082a91906116cb565b50602082015181600101908161084091906116cb565b5060408201518160020160006101000a81548173ffffffffffffffffffffffffffffffffffffffff021916908373ffffffffffffffffffffffffffffffffffffffff160217905550606082015181600301556080820151816004015560a0820151816005015560c08201518160060160006101000a81548160ff02191690831515021790555050507f85d038f2d0b3728e5fede2ce367934666edeabb735999e2be302dc035466b98b60016000805490506108fb919061179d565b87868660405161090e9493929190611826565b60405180910390a1505050505050565b60008082815481106109335761093261138f565b5b9060005260206000209060070201905080600401544210158061095e57508060030154816005015410155b61099d576040517f08c379a0000000000000000000000000000000000000000000000000000000008152600401610994906118be565b60405180910390fd5b8060060160009054906101000a900460ff16156109ef576040517f08c379a00000000000000000000000000000000000000000000000000000000081526004016109e69061192a565b60405180910390fd5b60018160060160006101000a81548160ff0219169083151502179055506000816003015482600501541015905060008260020160009054906101000a900473ffffffffffffffffffffffffffffffffffffffff1673ffffffffffffffffffffffffffffffffffffffff168360050154604051610a6a9061130e565b60006040518083038185875af1925050503d8060008114610aa7576040519150601f19603f3d011682016040523d82523d6000602084013e610aac565b606091505b5050905080610af0576040517f08c379a0000000000000000000000000000000000000000000000000000000008152600401610ae790611996565b60405180910390fd5b7f2daeb9036523684d0097530a448d8d042ff2da258e6f6b7f30184fa0fd7bcf0a84846005015484604051610b27939291906119b6565b60405180910390a150505050565b6000808281548110610b4a57610b4961138f565b5b9060005260206000209060070201905080600401544210610ba0576040517f08c379a0000000000000000000000000000000000000000000000000000000008152600401610b9790611a39565b60405180910390fd5b60003411610be3576040517f08c379a0000000000000000000000000000000000000000000000000000000008152600401610bda90611acb565b60405180910390fd5b8060060160009054906101000a900460ff1615610c35576040517f08c379a0000000000000000000000000000000000000000000000000000000008152600401610c2c9061192a565b60405180910390fd5b34816005016000828254610c4991906114eb565b925050819055507f0b5b4c52969ff7329ecf7ee536409fda87812b15a8622bc6e8cdeab3aee14a26823334604051610c8393929190611aeb565b60405180910390a18060030154816005015410610ca457610ca38261091e565b5b5050565b6000604051905090565b600080fd5b600080fd5b6000819050919050565b610ccf81610cbc565b8114610cda57600080fd5b50565b600081359050610cec81610cc6565b92915050565b600060208284031215610d0857610d07610cb2565b5b6000610d1684828501610cdd565b91505092915050565b600081519050919050565b600082825260208201905092915050565b60005b83811015610d59578082015181840152602081019050610d3e565b60008484015250505050565b6000601f19601f8301169050919050565b6000610d8182610d1f565b610d8b8185610d2a565b9350610d9b818560208601610d3b565b610da481610d65565b840191505092915050565b600073ffffffffffffffffffffffffffffffffffffffff82169050919050565b6000610dda82610daf565b9050919050565b610dea81610dcf565b82525050565b610df981610cbc565b82525050565b60008115159050919050565b610e1481610dff565b82525050565b600060e0820190508181036000830152610e34818a610d76565b90508181036020830152610e488189610d76565b9050610e576040830188610de1565b610e646060830187610df0565b610e716080830186610df0565b610e7e60a0830185610df0565b610e8b60c0830184610e0b565b98975050505050505050565b6000610ea282610daf565b9050919050565b610eb281610e97565b82525050565b600060e0820190508181036000830152610ed2818a610d76565b90508181036020830152610ee68189610d76565b9050610ef56040830188610ea9565b610f026060830187610df0565b610f0f6080830186610df0565b610f1c60a0830185610df0565b610f2960c0830184610e0b565b98975050505050505050565b6000602082019050610f4a6000830184610df0565b92915050565b6000602082019050610f656000830184610ea9565b92915050565b600080fd5b600080fd5b7f4e487b7100000000000000000000000000000000000000000000000000000000600052604160045260246000fd5b610fad82610d65565b810181811067ffffffffffffffff82111715610fcc57610fcb610f75565b5b80604052505050565b6000610fdf610ca8565b9050610feb8282610fa4565b919050565b600067ffffffffffffffff82111561100b5761100a610f75565b5b61101482610d65565b9050602081019050919050565b82818337600083830152505050565b600061104361103e84610ff0565b610fd5565b90508281526020810184848401111561105f5761105e610f70565b5b61106a848285611021565b509392505050565b600082601f83011261108757611086610f6b565b5b8135611097848260208601611030565b91505092915050565b6110a981610dcf565b81146110b457600080fd5b50565b6000813590506110c6816110a0565b92915050565b600080600080600060a086880312156110e8576110e7610cb2565b5b600086013567ffffffffffffffff81111561110657611105610cb7565b5b61111288828901611072565b955050602086013567ffffffffffffffff81111561113357611132610cb7565b5b61113f88828901611072565b9450506040611150888289016110b7565b935050606061116188828901610cdd565b925050608061117288828901610cdd565b9150509295509295909350565b7f4e487b7100000000000000000000000000000000000000000000000000000000600052602260045260246000fd5b600060028204905060018216806111c657607f821691505b6020821081036111d9576111d861117f565b5b50919050565b7f4f6e6c792074686520636f6e7472616374206f776e65722063616e2063616c6c60008201527f20746869732066756e6374696f6e000000000000000000000000000000000000602082015250565b600061123b602e83610d2a565b9150611246826111df565b604082019050919050565b6000602082019050818103600083015261126a8161122e565b9050919050565b7f4e6f2066756e647320746f207769746864726177000000000000000000000000600082015250565b60006112a7601483610d2a565b91506112b282611271565b602082019050919050565b600060208201905081810360008301526112d68161129a565b9050919050565b600081905092915050565b50565b60006112f86000836112dd565b9150611303826112e8565b600082019050919050565b6000611319826112eb565b9150819050919050565b7f5769746864726177616c206661696c6564000000000000000000000000000000600082015250565b6000611359601183610d2a565b915061136482611323565b602082019050919050565b600060208201905081810360008301526113888161134c565b9050919050565b7f4e487b7100000000000000000000000000000000000000000000000000000000600052603260045260246000fd5b7f476f616c206d7573742062652067726561746572207468616e207a65726f0000600082015250565b60006113f4601e83610d2a565b91506113ff826113be565b602082019050919050565b60006020820190508181036000830152611423816113e7565b9050919050565b7f4475726174696f6e206d7573742062652067726561746572207468616e207a6560008201527f726f000000000000000000000000000000000000000000000000000000000000602082015250565b6000611486602283610d2a565b91506114918261142a565b604082019050919050565b600060208201905081810360008301526114b581611479565b9050919050565b7f4e487b7100000000000000000000000000000000000000000000000000000000600052601160045260246000fd5b60006114f682610cbc565b915061150183610cbc565b9250828201905080821115611519576115186114bc565b5b92915050565b60008190508160005260206000209050919050565b60006020601f8301049050919050565b600082821b905092915050565b6000600883026115817fffffffffffffffffffffffffffffffffffffffffffffffffffffffffffffffff82611544565b61158b8683611544565b95508019841693508086168417925050509392505050565b6000819050919050565b60006115c86115c36115be84610cbc565b6115a3565b610cbc565b9050919050565b6000819050919050565b6115e2836115ad565b6115f66115ee826115cf565b848454611551565b825550505050565b600090565b61160b6115fe565b6116168184846115d9565b505050565b5b8181101561163a5761162f600082611603565b60018101905061161c565b5050565b601f82111561167f576116508161151f565b61165984611534565b81016020851015611668578190505b61167c61167485611534565b83018261161b565b50505b505050565b600082821c905092915050565b60006116a260001984600802611684565b1980831691505092915050565b60006116bb8383611691565b9150826002028217905092915050565b6116d482610d1f565b67ffffffffffffffff8111156116ed576116ec610f75565b5b6116f782546111ae565b61170282828561163e565b600060209050601f8311600181146117355760008415611723578287015190505b61172d85826116af565b865550611795565b601f1984166117438661151f565b60005b8281101561176b57848901518255600182019150602085019450602081019050611746565b868310156117885784890151611784601f891682611691565b8355505b6001600288020188555050505b505050505050565b60006117a882610cbc565b91506117b383610cbc565b92508282039050818111156117cb576117ca6114bc565b5b92915050565b60006117ec6117e76117e284610daf565b6115a3565b610daf565b9050919050565b60006117fe826117d1565b9050919050565b6000611810826117f3565b9050919050565b61182081611805565b82525050565b600060808201905061183b6000830187610df0565b818103602083015261184d8186610d76565b905061185c6040830185611817565b6118696060830184610df0565b95945050505050565b7f43616d706169676e2063616e6e6f7420626520656e6465642079657400000000600082015250565b60006118a8601c83610d2a565b91506118b382611872565b602082019050919050565b600060208201905081810360008301526118d78161189b565b9050919050565b7f43616d706169676e2068617320616c726561647920656e646564000000000000600082015250565b6000611914601a83610d2a565b915061191f826118de565b602082019050919050565b6000602082019050818103600083015261194381611907565b9050919050565b7f5472616e7366657220746f2062656e65666163746f72206661696c6564000000600082015250565b6000611980601d83610d2a565b915061198b8261194a565b602082019050919050565b600060208201905081810360008301526119af81611973565b9050919050565b60006060820190506119cb6000830186610df0565b6119d86020830185610df0565b6119e56040830184610e0b565b949350505050565b7f43616d706169676e2068617320656e6465640000000000000000000000000000600082015250565b6000611a23601283610d2a565b9150611a2e826119ed565b602082019050919050565b60006020820190508181036000830152611a5281611a16565b9050919050565b7f446f6e6174696f6e20616d6f756e74206d75737420626520677265617465722060008201527f7468616e207a65726f0000000000000000000000000000000000000000000000602082015250565b6000611ab5602983610d2a565b9150611ac082611a59565b604082019050919050565b60006020820190508181036000830152611ae481611aa8565b9050919050565b6000606082019050611b006000830186610df0565b611b0d6020830185610ea9565b611b1a6040830184610df0565b94935050505056fea26469706673582212206eee7c49519e34128bf415f8d91ac18d892d7e301e1c3e35398697222f30019664736f6c63430008180033",
  "linkReferences": {},
  "deployedLinkReferences": {}
}